{
  "_format": "hh-sol-artifact-1",
  "contractName": "NFTMarketplace",
  "sourceName": "contracts/NFTMarketplace.sol",
  "abi": [
    {
      "inputs": [],
      "stateMutability": "nonpayable",
      "type": "constructor"
    },
    {
      "anonymous": false,
      "inputs": [
        {
          "indexed": true,
          "internalType": "address",
          "name": "owner",
          "type": "address"
        },
        {
          "indexed": true,
          "internalType": "address",
          "name": "approved",
          "type": "address"
        },
        {
          "indexed": true,
          "internalType": "uint256",
          "name": "tokenId",
          "type": "uint256"
        }
      ],
      "name": "Approval",
      "type": "event"
    },
    {
      "anonymous": false,
      "inputs": [
        {
          "indexed": true,
          "internalType": "address",
          "name": "owner",
          "type": "address"
        },
        {
          "indexed": true,
          "internalType": "address",
          "name": "operator",
          "type": "address"
        },
        {
          "indexed": false,
          "internalType": "bool",
          "name": "approved",
          "type": "bool"
        }
      ],
      "name": "ApprovalForAll",
      "type": "event"
    },
    {
      "anonymous": false,
      "inputs": [
        {
          "indexed": false,
          "internalType": "uint256",
          "name": "_fromTokenId",
          "type": "uint256"
        },
        {
          "indexed": false,
          "internalType": "uint256",
          "name": "_toTokenId",
          "type": "uint256"
        }
      ],
      "name": "BatchMetadataUpdate",
      "type": "event"
    },
    {
      "anonymous": false,
      "inputs": [
        {
          "indexed": false,
          "internalType": "uint256",
          "name": "_tokenId",
          "type": "uint256"
        }
      ],
      "name": "MetadataUpdate",
      "type": "event"
    },
    {
      "anonymous": false,
      "inputs": [
        {
          "indexed": true,
          "internalType": "address",
          "name": "previousOwner",
          "type": "address"
        },
        {
          "indexed": true,
          "internalType": "address",
          "name": "newOwner",
          "type": "address"
        }
      ],
      "name": "OwnershipTransferred",
      "type": "event"
    },
    {
      "anonymous": false,
      "inputs": [
        {
          "indexed": true,
          "internalType": "uint256",
          "name": "tokenId",
          "type": "uint256"
        },
        {
          "indexed": false,
          "internalType": "address",
          "name": "owner",
          "type": "address"
        },
        {
          "indexed": false,
          "internalType": "address",
          "name": "seller",
          "type": "address"
        },
        {
          "indexed": false,
          "internalType": "uint256",
          "name": "price",
          "type": "uint256"
        },
        {
          "indexed": false,
          "internalType": "bool",
          "name": "currentlyListed",
          "type": "bool"
        }
      ],
      "name": "TokenListedSuccess",
      "type": "event"
    },
    {
      "anonymous": false,
      "inputs": [
        {
          "indexed": true,
          "internalType": "address",
          "name": "from",
          "type": "address"
        },
        {
          "indexed": true,
          "internalType": "address",
          "name": "to",
          "type": "address"
        },
        {
          "indexed": true,
          "internalType": "uint256",
          "name": "tokenId",
          "type": "uint256"
        }
      ],
      "name": "Transfer",
      "type": "event"
    },
    {
      "inputs": [
        {
          "internalType": "address",
          "name": "to",
          "type": "address"
        },
        {
          "internalType": "uint256",
          "name": "tokenId",
          "type": "uint256"
        }
      ],
      "name": "approve",
      "outputs": [],
      "stateMutability": "nonpayable",
      "type": "function"
    },
    {
      "inputs": [
        {
          "internalType": "address",
          "name": "owner",
          "type": "address"
        }
      ],
      "name": "balanceOf",
      "outputs": [
        {
          "internalType": "uint256",
          "name": "",
          "type": "uint256"
        }
      ],
      "stateMutability": "view",
      "type": "function"
    },
    {
      "inputs": [
        {
          "internalType": "string",
          "name": "tokenURI",
          "type": "string"
        },
        {
          "internalType": "uint256",
          "name": "price",
          "type": "uint256"
        }
      ],
      "name": "createToken",
      "outputs": [
        {
          "internalType": "uint256",
          "name": "",
          "type": "uint256"
        }
      ],
      "stateMutability": "payable",
      "type": "function"
    },
    {
      "inputs": [
        {
          "internalType": "uint256",
          "name": "tokenId",
          "type": "uint256"
        }
      ],
      "name": "executeSale",
      "outputs": [],
      "stateMutability": "payable",
      "type": "function"
    },
    {
      "inputs": [],
      "name": "getAllNFTs",
      "outputs": [
        {
          "components": [
            {
              "internalType": "uint256",
              "name": "tokenId",
              "type": "uint256"
            },
            {
              "internalType": "address payable",
              "name": "owner",
              "type": "address"
            },
            {
              "internalType": "address payable",
              "name": "seller",
              "type": "address"
            },
            {
              "internalType": "uint256",
              "name": "price",
              "type": "uint256"
            },
            {
              "internalType": "bool",
              "name": "currentlyListed",
              "type": "bool"
            }
          ],
          "internalType": "struct NFTMarketplace.ListedToken[]",
          "name": "",
          "type": "tuple[]"
        }
      ],
      "stateMutability": "view",
      "type": "function"
    },
    {
      "inputs": [
        {
          "internalType": "uint256",
          "name": "tokenId",
          "type": "uint256"
        }
      ],
      "name": "getApproved",
      "outputs": [
        {
          "internalType": "address",
          "name": "",
          "type": "address"
        }
      ],
      "stateMutability": "view",
      "type": "function"
    },
    {
      "inputs": [],
      "name": "getCurrentToken",
      "outputs": [
        {
          "components": [
            {
              "internalType": "uint256",
              "name": "tokenId",
              "type": "uint256"
            },
            {
              "internalType": "address payable",
              "name": "owner",
              "type": "address"
            },
            {
              "internalType": "address payable",
              "name": "seller",
              "type": "address"
            },
            {
              "internalType": "uint256",
              "name": "price",
              "type": "uint256"
            },
            {
              "internalType": "bool",
              "name": "currentlyListed",
              "type": "bool"
            }
          ],
          "internalType": "struct NFTMarketplace.ListedToken",
          "name": "",
          "type": "tuple"
        }
      ],
      "stateMutability": "view",
      "type": "function"
    },
    {
      "inputs": [],
      "name": "getLastIdToListedToken",
      "outputs": [
        {
          "internalType": "uint256",
          "name": "",
          "type": "uint256"
        }
      ],
      "stateMutability": "view",
      "type": "function"
    },
    {
      "inputs": [],
      "name": "getListPrice",
      "outputs": [
        {
          "internalType": "uint256",
          "name": "",
          "type": "uint256"
        }
      ],
      "stateMutability": "view",
      "type": "function"
    },
    {
      "inputs": [
        {
          "internalType": "uint256",
          "name": "_tokenId",
          "type": "uint256"
        }
      ],
      "name": "getListedTokenForId",
      "outputs": [
        {
          "components": [
            {
              "internalType": "uint256",
              "name": "tokenId",
              "type": "uint256"
            },
            {
              "internalType": "address payable",
              "name": "owner",
              "type": "address"
            },
            {
              "internalType": "address payable",
              "name": "seller",
              "type": "address"
            },
            {
              "internalType": "uint256",
              "name": "price",
              "type": "uint256"
            },
            {
              "internalType": "bool",
              "name": "currentlyListed",
              "type": "bool"
            }
          ],
          "internalType": "struct NFTMarketplace.ListedToken",
          "name": "",
          "type": "tuple"
        }
      ],
      "stateMutability": "view",
      "type": "function"
    },
    {
      "inputs": [],
      "name": "getMyNFTs",
      "outputs": [
        {
          "components": [
            {
              "internalType": "uint256",
              "name": "tokenId",
              "type": "uint256"
            },
            {
              "internalType": "address payable",
              "name": "owner",
              "type": "address"
            },
            {
              "internalType": "address payable",
              "name": "seller",
              "type": "address"
            },
            {
              "internalType": "uint256",
              "name": "price",
              "type": "uint256"
            },
            {
              "internalType": "bool",
              "name": "currentlyListed",
              "type": "bool"
            }
          ],
          "internalType": "struct NFTMarketplace.ListedToken[]",
          "name": "",
          "type": "tuple[]"
        }
      ],
      "stateMutability": "view",
      "type": "function"
    },
    {
      "inputs": [
        {
          "internalType": "address",
          "name": "owner",
          "type": "address"
        },
        {
          "internalType": "address",
          "name": "operator",
          "type": "address"
        }
      ],
      "name": "isApprovedForAll",
      "outputs": [
        {
          "internalType": "bool",
          "name": "",
          "type": "bool"
        }
      ],
      "stateMutability": "view",
      "type": "function"
    },
    {
      "inputs": [],
      "name": "name",
      "outputs": [
        {
          "internalType": "string",
          "name": "",
          "type": "string"
        }
      ],
      "stateMutability": "view",
      "type": "function"
    },
    {
      "inputs": [],
      "name": "owner",
      "outputs": [
        {
          "internalType": "address",
          "name": "",
          "type": "address"
        }
      ],
      "stateMutability": "view",
      "type": "function"
    },
    {
      "inputs": [
        {
          "internalType": "uint256",
          "name": "tokenId",
          "type": "uint256"
        }
      ],
      "name": "ownerOf",
      "outputs": [
        {
          "internalType": "address",
          "name": "",
          "type": "address"
        }
      ],
      "stateMutability": "view",
      "type": "function"
    },
    {
      "inputs": [],
      "name": "renounceOwnership",
      "outputs": [],
      "stateMutability": "nonpayable",
      "type": "function"
    },
    {
      "inputs": [
        {
          "internalType": "address",
          "name": "from",
          "type": "address"
        },
        {
          "internalType": "address",
          "name": "to",
          "type": "address"
        },
        {
          "internalType": "uint256",
          "name": "tokenId",
          "type": "uint256"
        }
      ],
      "name": "safeTransferFrom",
      "outputs": [],
      "stateMutability": "nonpayable",
      "type": "function"
    },
    {
      "inputs": [
        {
          "internalType": "address",
          "name": "from",
          "type": "address"
        },
        {
          "internalType": "address",
          "name": "to",
          "type": "address"
        },
        {
          "internalType": "uint256",
          "name": "tokenId",
          "type": "uint256"
        },
        {
          "internalType": "bytes",
          "name": "data",
          "type": "bytes"
        }
      ],
      "name": "safeTransferFrom",
      "outputs": [],
      "stateMutability": "nonpayable",
      "type": "function"
    },
    {
      "inputs": [
        {
          "internalType": "address",
          "name": "operator",
          "type": "address"
        },
        {
          "internalType": "bool",
          "name": "approved",
          "type": "bool"
        }
      ],
      "name": "setApprovalForAll",
      "outputs": [],
      "stateMutability": "nonpayable",
      "type": "function"
    },
    {
      "inputs": [
        {
          "internalType": "bytes4",
          "name": "interfaceId",
          "type": "bytes4"
        }
      ],
      "name": "supportsInterface",
      "outputs": [
        {
          "internalType": "bool",
          "name": "",
          "type": "bool"
        }
      ],
      "stateMutability": "view",
      "type": "function"
    },
    {
      "inputs": [],
      "name": "symbol",
      "outputs": [
        {
          "internalType": "string",
          "name": "",
          "type": "string"
        }
      ],
      "stateMutability": "view",
      "type": "function"
    },
    {
      "inputs": [
        {
          "internalType": "uint256",
          "name": "tokenId",
          "type": "uint256"
        }
      ],
      "name": "tokenURI",
      "outputs": [
        {
          "internalType": "string",
          "name": "",
          "type": "string"
        }
      ],
      "stateMutability": "view",
      "type": "function"
    },
    {
      "inputs": [
        {
          "internalType": "address",
          "name": "from",
          "type": "address"
        },
        {
          "internalType": "address",
          "name": "to",
          "type": "address"
        },
        {
          "internalType": "uint256",
          "name": "tokenId",
          "type": "uint256"
        }
      ],
      "name": "transferFrom",
      "outputs": [],
      "stateMutability": "nonpayable",
      "type": "function"
    },
    {
      "inputs": [
        {
          "internalType": "address",
          "name": "newOwner",
          "type": "address"
        }
      ],
      "name": "transferOwnership",
      "outputs": [],
      "stateMutability": "nonpayable",
      "type": "function"
    },
    {
      "inputs": [
        {
          "internalType": "uint256",
          "name": "_listPrice",
          "type": "uint256"
        }
      ],
      "name": "updateListedPrice",
      "outputs": [],
      "stateMutability": "nonpayable",
      "type": "function"
    }
  ],
  "bytecode": "0x6080604052662386f26fc1000060085534801561001b57600080fd5b506040518060400160405280600e81526020016d4e46544d61726b6574706c61636560901b815250604051806040016040528060048152602001634e46544d60e01b81525061007661007161009760201b60201c565b61009b565b6001610082838261018a565b50600261008f828261018a565b505050610248565b3390565b600080546001600160a01b038381166001600160a01b0319831681178455604051919092169283917f8be0079c531659141344cd1fd0a4f28419497f9722a3daafe3b4186f6b6457e09190a35050565b634e487b7160e01b600052604160045260246000fd5b600181811c9082168061011557607f821691505b60208210810361013557634e487b7160e01b600052602260045260246000fd5b50919050565b601f82111561018557806000526020600020601f840160051c810160208510156101625750805b601f840160051c820191505b81811015610182576000815560010161016e565b50505b505050565b81516001600160401b038111156101a3576101a36100eb565b6101b7816101b18454610101565b8461013b565b6020601f8211600181146101eb57600083156101d35750848201515b600019600385901b1c1916600184901b178455610182565b600084815260208120601f198516915b8281101561021b57878501518255602094850194600190920191016101fb565b50848210156102395786840151600019600387901b60f8161c191681555b50505050600190811b01905550565b612279806102576000396000f3fe6080604052600436106101665760003560e01c806372b3b620116100d1578063a22cb4651161008a578063e0391b0911610064578063e0391b0914610411578063e985e9c514610426578063ef2d174614610446578063f2fde38b1461045b57600080fd5b8063a22cb465146103b1578063b88d4fde146103d1578063c87b56dd146103f157600080fd5b806372b3b6201461030b5780638da5cb5b1461031e5780638e2645901461033c57806395d89b41146103695780639b1225c41461037e5780639e52ce141461039157600080fd5b806342842e0e1161012357806342842e0e1461025f578063629cb2e41461027f5780636352211e146102a157806368f1945f146102c157806370a08231146102d6578063715018a6146102f657600080fd5b806301ffc9a71461016b57806306fdde03146101a057806307f1bed8146101c2578063081812fc146101e5578063095ea7b31461021d57806323b872dd1461023f575b600080fd5b34801561017757600080fd5b5061018b610186366004611b75565b61047b565b60405190151581526020015b60405180910390f35b3480156101ac57600080fd5b506101b56104a6565b6040516101979190611be2565b3480156101ce57600080fd5b506101d7610538565b604051908152602001610197565b3480156101f157600080fd5b50610205610200366004611bf5565b610548565b6040516001600160a01b039091168152602001610197565b34801561022957600080fd5b5061023d610238366004611c2a565b61056f565b005b34801561024b57600080fd5b5061023d61025a366004611c54565b610689565b34801561026b57600080fd5b5061023d61027a366004611c54565b6106ba565b34801561028b57600080fd5b506102946106d5565b6040516101979190611cd1565b3480156102ad57600080fd5b506102056102bc366004611bf5565b61089e565b3480156102cd57600080fd5b506008546101d7565b3480156102e257600080fd5b506101d76102f1366004611d1f565b6108fe565b34801561030257600080fd5b5061023d610984565b6101d7610319366004611d3a565b610998565b34801561032a57600080fd5b506000546001600160a01b0316610205565b34801561034857600080fd5b5061035c610357366004611bf5565b610b84565b6040516101979190611db3565b34801561037557600080fd5b506101b5610bee565b61023d61038c366004611bf5565b610bfd565b34801561039d57600080fd5b5061023d6103ac366004611bf5565b610d9c565b3480156103bd57600080fd5b5061023d6103cc366004611dc1565b610da9565b3480156103dd57600080fd5b5061023d6103ec366004611e13565b610db8565b3480156103fd57600080fd5b506101b561040c366004611bf5565b610dea565b34801561041d57600080fd5b50610294610efa565b34801561043257600080fd5b5061018b610441366004611ef7565b611006565b34801561045257600080fd5b5061035c611034565b34801561046757600080fd5b5061023d610476366004611d1f565b6110ab565b60006001600160e01b03198216632483248360e11b14806104a057506104a082611124565b92915050565b6060600180546104b590611f2a565b80601f01602080910402602001604051908101604052809291908181526020018280546104e190611f2a565b801561052e5780601f106105035761010080835404028352916020019161052e565b820191906000526020600020905b81548152906001019060200180831161051157829003601f168201915b5050505050905090565b600061054360095490565b905090565b600061055382611174565b506000908152600560205260409020546001600160a01b031690565b600061057a8261089e565b9050806001600160a01b0316836001600160a01b0316036105ec5760405162461bcd60e51b815260206004820152602160248201527f4552433732313a20617070726f76616c20746f2063757272656e74206f776e656044820152603960f91b60648201526084015b60405180910390fd5b336001600160a01b038216148061060857506106088133611006565b61067a5760405162461bcd60e51b815260206004820152603d60248201527f4552433732313a20617070726f76652063616c6c6572206973206e6f7420746f60448201527f6b656e206f776e6572206f7220617070726f76656420666f7220616c6c00000060648201526084016105e3565b61068483836111d3565b505050565b6106933382611241565b6106af5760405162461bcd60e51b81526004016105e390611f5e565b61068483838361129f565b61068483838360405180602001604052806000815250610db8565b6060600060015b600954811161074b576000818152600b60205260409020600201546001600160a01b031633148061072657506000818152600b60205260409020600101546001600160a01b031633145b1561073957610736600183611fc1565b91505b8061074381611fd4565b9150506106dc565b5060008167ffffffffffffffff81111561076757610767611dfd565b6040519080825280602002602001820160405280156107a057816020015b61078d611b31565b8152602001906001900390816107855790505b509050600060015b6009548111610895576000818152600b60205260409020600201546001600160a01b03163314806107f257506000818152600b60205260409020600101546001600160a01b031633145b15610883576000818152600b6020908152604091829020825160a0810184528154815260018201546001600160a01b03908116938201939093526002820154909216928201929092526003820154606082015260049091015460ff1615156080820152835184908490811061086957610869611fed565b6020026020010181905250818061087f90611fd4565b9250505b8061088d81611fd4565b9150506107a8565b50909392505050565b6000818152600360205260408120546001600160a01b0316806104a05760405162461bcd60e51b8152602060048201526018602482015277115490cdcc8c4e881a5b9d985b1a59081d1bdad95b88125160421b60448201526064016105e3565b60006001600160a01b0382166109685760405162461bcd60e51b815260206004820152602960248201527f4552433732313a2061646472657373207a65726f206973206e6f7420612076616044820152683634b21037bbb732b960b91b60648201526084016105e3565b506001600160a01b031660009081526004602052604090205490565b61098c611403565b610996600061145d565b565b60008082116109e95760405162461bcd60e51b815260206004820152601c60248201527f7072696365206d7573742067726561746572207468616e207a65726f0000000060448201526064016105e3565b6008543414610a315760405162461bcd60e51b81526020600482015260146024820152736d7573742070617920666f72206c697374696e6760601b60448201526064016105e3565b610a3f600980546001019055565b6000610a4a60095490565b9050610a5633826114ad565b610a968186868080601f0160208091040260200160405190810160405280939291908181526020018383808284376000920191909152506114c792505050565b6040805160a08101825282815230602080830182815233848601818152606086018a815260016080880181815260008b8152600b9097529890952096518755925193860180546001600160a01b039586166001600160a01b03199182161790915590516002870180549190951691161790925551600384015592516004909201805492151560ff1990931692909217909155610b3391908361129f565b604080513081523360208201529081018490526001606082015281907f9339409317fd01fabff48b703019016f49159bacc801ae872d2ca637d226e4c09060800160405180910390a2949350505050565b610b8c611b31565b506000908152600b6020908152604091829020825160a0810184528154815260018201546001600160a01b03908116938201939093526002820154909216928201929092526003820154606082015260049091015460ff161515608082015290565b6060600280546104b590611f2a565b6000818152600b60205260409020600481015460ff16610c4c5760405162461bcd60e51b815260206004820152600a6024820152691b9bdd081b1a5cdd195960b21b60448201526064016105e3565b80600301543414610c925760405162461bcd60e51b815260206004820152601060248201526f0ecc2d8eaca40dcdee840cadcdeeaced60831b60448201526064016105e3565b6000610c9d8361089e565b90506001600160a01b038116610ce55760405162461bcd60e51b815260206004820152600d60248201526c18da1958dac81d1bdad95b9259609a1b60448201526064016105e3565b600282018054336001600160a01b0319821681179092556001600160a01b031690610d129083908661129f565b60038301546040516001600160a01b0383169180156108fc02916000818181858888f19350505050158015610d4b573d6000803e3d6000fd5b50600080546008546040516001600160a01b039092169281156108fc029290818181858888f19350505050158015610d87573d6000803e3d6000fd5b50610d96600a80546001019055565b50505050565b610da4611403565b600855565b610db4338383611592565b5050565b610dc23383611241565b610dde5760405162461bcd60e51b81526004016105e390611f5e565b610d9684848484611660565b6060610df582611174565b60008281526007602052604081208054610e0e90611f2a565b80601f0160208091040260200160405190810160405280929190818152602001828054610e3a90611f2a565b8015610e875780601f10610e5c57610100808354040283529160200191610e87565b820191906000526020600020905b815481529060010190602001808311610e6a57829003601f168201915b505050505090506000610ea560408051602081019091526000815290565b90508051600003610eb7575092915050565b815115610ee9578082604051602001610ed1929190612003565b60405160208183030381529060405292505050919050565b610ef284611693565b949350505050565b60606000610f0760095490565b67ffffffffffffffff811115610f1f57610f1f611dfd565b604051908082528060200260200182016040528015610f5857816020015b610f45611b31565b815260200190600190039081610f3d5790505b50905060015b81518111611000576000818152600b6020908152604091829020825160a081018452815481526001808301546001600160a01b0390811694830194909452600283015490931693810193909352600381015460608401526004015460ff161515608083015281908490610fd19085612032565b81518110610fe157610fe1611fed565b6020026020010181905250508080610ff890611fd4565b915050610f5e565b50919050565b6001600160a01b03918216600090815260066020908152604080832093909416825291909152205460ff1690565b61103c611b31565b600b600061104960095490565b81526020808201929092526040908101600020815160a0810183528154815260018201546001600160a01b0390811694820194909452600282015490931691830191909152600381015460608301526004015460ff1615156080820152919050565b6110b3611403565b6001600160a01b0381166111185760405162461bcd60e51b815260206004820152602660248201527f4f776e61626c653a206e6577206f776e657220697320746865207a65726f206160448201526564647265737360d01b60648201526084016105e3565b6111218161145d565b50565b60006001600160e01b031982166380ac58cd60e01b148061115557506001600160e01b03198216635b5e139f60e01b145b806104a057506301ffc9a760e01b6001600160e01b03198316146104a0565b6000818152600360205260409020546001600160a01b03166111215760405162461bcd60e51b8152602060048201526018602482015277115490cdcc8c4e881a5b9d985b1a59081d1bdad95b88125160421b60448201526064016105e3565b600081815260056020526040902080546001600160a01b0319166001600160a01b03841690811790915581906112088261089e565b6001600160a01b03167f8c5be1e5ebec7d5bd14f71427d1e84f3dd0314c0f7b2291e5b200ac8c7c3b92560405160405180910390a45050565b60008061124d8361089e565b9050806001600160a01b0316846001600160a01b0316148061127457506112748185611006565b80610ef25750836001600160a01b031661128d84610548565b6001600160a01b031614949350505050565b826001600160a01b03166112b28261089e565b6001600160a01b0316146112d85760405162461bcd60e51b81526004016105e390612045565b6001600160a01b03821661133a5760405162461bcd60e51b8152602060048201526024808201527f4552433732313a207472616e7366657220746f20746865207a65726f206164646044820152637265737360e01b60648201526084016105e3565b826001600160a01b031661134d8261089e565b6001600160a01b0316146113735760405162461bcd60e51b81526004016105e390612045565b600081815260056020908152604080832080546001600160a01b03199081169091556001600160a01b0387811680865260048552838620805460001901905590871680865283862080546001019055868652600390945282852080549092168417909155905184937fddf252ad1be2c89b69c2b068fc378daa952ba7f163c4a11628f55a4df523b3ef91a4505050565b6000546001600160a01b031633146109965760405162461bcd60e51b815260206004820181905260248201527f4f776e61626c653a2063616c6c6572206973206e6f7420746865206f776e657260448201526064016105e3565b600080546001600160a01b038381166001600160a01b0319831681178455604051919092169283917f8be0079c531659141344cd1fd0a4f28419497f9722a3daafe3b4186f6b6457e09190a35050565b610db4828260405180602001604052806000815250611707565b6000828152600360205260409020546001600160a01b03166115425760405162461bcd60e51b815260206004820152602e60248201527f45524337323155524953746f726167653a2055524920736574206f66206e6f6e60448201526d32bc34b9ba32b73a103a37b5b2b760911b60648201526084016105e3565b600082815260076020526040902061155a82826120d8565b506040518281527ff8e1a15aba9398e019f0b49df1a4fde98ee17ae345cb5f6b5e2c27f5033e8ce79060200160405180910390a15050565b816001600160a01b0316836001600160a01b0316036115f35760405162461bcd60e51b815260206004820152601960248201527f4552433732313a20617070726f766520746f2063616c6c65720000000000000060448201526064016105e3565b6001600160a01b03838116600081815260066020908152604080832094871680845294825291829020805460ff191686151590811790915591519182527f17307eab39ab6107e8899845ad3d59bd9653f200f220920489ca2b5937696c31910160405180910390a3505050565b61166b84848461129f565b6116778484848461173a565b610d965760405162461bcd60e51b81526004016105e390612197565b606061169e82611174565b60006116b560408051602081019091526000815290565b905060008151116116d55760405180602001604052806000815250611700565b806116df8461183b565b6040516020016116f0929190612003565b6040516020818303038152906040525b9392505050565b61171183836118ce565b61171e600084848461173a565b6106845760405162461bcd60e51b81526004016105e390612197565b60006001600160a01b0384163b1561183057604051630a85bd0160e11b81526001600160a01b0385169063150b7a029061177e9033908990889088906004016121e9565b6020604051808303816000875af19250505080156117b9575060408051601f3d908101601f191682019092526117b691810190612226565b60015b611816573d8080156117e7576040519150601f19603f3d011682016040523d82523d6000602084013e6117ec565b606091505b50805160000361180e5760405162461bcd60e51b81526004016105e390612197565b805181602001fd5b6001600160e01b031916630a85bd0160e11b149050610ef2565b506001949350505050565b6060600061184883611a59565b600101905060008167ffffffffffffffff81111561186857611868611dfd565b6040519080825280601f01601f191660200182016040528015611892576020820181803683370190505b5090508181016020015b600019016f181899199a1a9b1b9c1cb0b131b232b360811b600a86061a8153600a850494508461189c57509392505050565b6001600160a01b0382166119245760405162461bcd60e51b815260206004820181905260248201527f4552433732313a206d696e7420746f20746865207a65726f206164647265737360448201526064016105e3565b6000818152600360205260409020546001600160a01b0316156119895760405162461bcd60e51b815260206004820152601c60248201527f4552433732313a20746f6b656e20616c7265616479206d696e7465640000000060448201526064016105e3565b6000818152600360205260409020546001600160a01b0316156119ee5760405162461bcd60e51b815260206004820152601c60248201527f4552433732313a20746f6b656e20616c7265616479206d696e7465640000000060448201526064016105e3565b6001600160a01b038216600081815260046020908152604080832080546001019055848352600390915280822080546001600160a01b0319168417905551839291907fddf252ad1be2c89b69c2b068fc378daa952ba7f163c4a11628f55a4df523b3ef908290a45050565b60008072184f03e93ff9f4daa797ed6e38ed64bf6a1f0160401b8310611a985772184f03e93ff9f4daa797ed6e38ed64bf6a1f0160401b830492506040015b6d04ee2d6d415b85acef81000000008310611ac4576d04ee2d6d415b85acef8100000000830492506020015b662386f26fc100008310611ae257662386f26fc10000830492506010015b6305f5e1008310611afa576305f5e100830492506008015b6127108310611b0e57612710830492506004015b60648310611b20576064830492506002015b600a83106104a05760010192915050565b6040805160a08101825260008082526020820181905291810182905260608101829052608081019190915290565b6001600160e01b03198116811461112157600080fd5b600060208284031215611b8757600080fd5b813561170081611b5f565b60005b83811015611bad578181015183820152602001611b95565b50506000910152565b60008151808452611bce816020860160208601611b92565b601f01601f19169290920160200192915050565b6020815260006117006020830184611bb6565b600060208284031215611c0757600080fd5b5035919050565b80356001600160a01b0381168114611c2557600080fd5b919050565b60008060408385031215611c3d57600080fd5b611c4683611c0e565b946020939093013593505050565b600080600060608486031215611c6957600080fd5b611c7284611c0e565b9250611c8060208501611c0e565b929592945050506040919091013590565b805182526020808201516001600160a01b039081169184019190915260408083015190911690830152606080820151908301526080908101511515910152565b602080825282518282018190526000918401906040840190835b81811015611d1457611cfe838551611c91565b6020939093019260a09290920191600101611ceb565b509095945050505050565b600060208284031215611d3157600080fd5b61170082611c0e565b600080600060408486031215611d4f57600080fd5b833567ffffffffffffffff811115611d6657600080fd5b8401601f81018613611d7757600080fd5b803567ffffffffffffffff811115611d8e57600080fd5b866020828401011115611da057600080fd5b6020918201979096509401359392505050565b60a081016104a08284611c91565b60008060408385031215611dd457600080fd5b611ddd83611c0e565b915060208301358015158114611df257600080fd5b809150509250929050565b634e487b7160e01b600052604160045260246000fd5b60008060008060808587031215611e2957600080fd5b611e3285611c0e565b9350611e4060208601611c0e565b925060408501359150606085013567ffffffffffffffff811115611e6357600080fd5b8501601f81018713611e7457600080fd5b803567ffffffffffffffff811115611e8e57611e8e611dfd565b604051601f8201601f19908116603f0116810167ffffffffffffffff81118282101715611ebd57611ebd611dfd565b604052818152828201602001891015611ed557600080fd5b8160208401602083013760006020838301015280935050505092959194509250565b60008060408385031215611f0a57600080fd5b611f1383611c0e565b9150611f2160208401611c0e565b90509250929050565b600181811c90821680611f3e57607f821691505b60208210810361100057634e487b7160e01b600052602260045260246000fd5b6020808252602d908201527f4552433732313a2063616c6c6572206973206e6f7420746f6b656e206f776e6560408201526c1c881bdc88185c1c1c9bdd9959609a1b606082015260800190565b634e487b7160e01b600052601160045260246000fd5b808201808211156104a0576104a0611fab565b600060018201611fe657611fe6611fab565b5060010190565b634e487b7160e01b600052603260045260246000fd5b60008351612015818460208801611b92565b835190830190612029818360208801611b92565b01949350505050565b818103818111156104a0576104a0611fab565b60208082526025908201527f4552433732313a207472616e736665722066726f6d20696e636f72726563742060408201526437bbb732b960d91b606082015260800190565b601f82111561068457806000526020600020601f840160051c810160208510156120b15750805b601f840160051c820191505b818110156120d157600081556001016120bd565b5050505050565b815167ffffffffffffffff8111156120f2576120f2611dfd565b612106816121008454611f2a565b8461208a565b6020601f82116001811461213a57600083156121225750848201515b600019600385901b1c1916600184901b1784556120d1565b600084815260208120601f198516915b8281101561216a578785015182556020948501946001909201910161214a565b50848210156121885786840151600019600387901b60f8161c191681555b50505050600190811b01905550565b60208082526032908201527f4552433732313a207472616e7366657220746f206e6f6e20455243373231526560408201527131b2b4bb32b91034b6b83632b6b2b73a32b960711b606082015260800190565b6001600160a01b038581168252841660208201526040810183905260806060820181905260009061221c90830184611bb6565b9695505050505050565b60006020828403121561223857600080fd5b815161170081611b5f56fea2646970667358221220a1c1ed023211be5aaea5a104b287cc236042f658d912330282e20c681b1154d364736f6c634300081a0033",
  "linkReferences": {},
  "deployedLinkReferences": {}
}